{
  "contracts/dBank.sol": {
    "dBank": {
      "abi": [
        {
          "inputs": [],
          "stateMutability": "nonpayable",
          "type": "constructor"
        },
        {
          "inputs": [],
          "name": "borrow",
          "outputs": [],
          "stateMutability": "payable",
          "type": "function"
        },
        {
          "inputs": [],
          "name": "deposit",
          "outputs": [],
          "stateMutability": "payable",
          "type": "function"
        },
        {
          "inputs": [],
          "name": "payOff",
          "outputs": [],
          "stateMutability": "nonpayable",
          "type": "function"
        },
        {
          "inputs": [],
          "name": "withdraw",
          "outputs": [],
          "stateMutability": "nonpayable",
          "type": "function"
        }
      ],
      "evm": {
        "bytecode": {
          "linkReferences": {},
          "object": "608060405234801561001057600080fd5b5060b58061001f6000396000f3fe608060405260043610603a5760003560e01c80633ccfd60b14603f5780633fac68d5146053578063d0e30db0146067578063e68d356914606f575b600080fd5b348015604a57600080fd5b5060516077565b005b348015605e57600080fd5b5060656079565b005b606d607b565b005b6075607d565b005b565b565b565b56fea2646970667358221220a950022e6ab8468ab540d264bc753eb02b219e92acfa295b3d6ea5def376d15364736f6c63430008040033",
          "opcodes": "PUSH1 0x80 PUSH1 0x40 MSTORE CALLVALUE DUP1 ISZERO PUSH2 0x10 JUMPI PUSH1 0x0 DUP1 REVERT JUMPDEST POP PUSH1 0xB5 DUP1 PUSH2 0x1F PUSH1 0x0 CODECOPY PUSH1 0x0 RETURN INVALID PUSH1 0x80 PUSH1 0x40 MSTORE PUSH1 0x4 CALLDATASIZE LT PUSH1 0x3A JUMPI PUSH1 0x0 CALLDATALOAD PUSH1 0xE0 SHR DUP1 PUSH4 0x3CCFD60B EQ PUSH1 0x3F JUMPI DUP1 PUSH4 0x3FAC68D5 EQ PUSH1 0x53 JUMPI DUP1 PUSH4 0xD0E30DB0 EQ PUSH1 0x67 JUMPI DUP1 PUSH4 0xE68D3569 EQ PUSH1 0x6F JUMPI JUMPDEST PUSH1 0x0 DUP1 REVERT JUMPDEST CALLVALUE DUP1 ISZERO PUSH1 0x4A JUMPI PUSH1 0x0 DUP1 REVERT JUMPDEST POP PUSH1 0x51 PUSH1 0x77 JUMP JUMPDEST STOP JUMPDEST CALLVALUE DUP1 ISZERO PUSH1 0x5E JUMPI PUSH1 0x0 DUP1 REVERT JUMPDEST POP PUSH1 0x65 PUSH1 0x79 JUMP JUMPDEST STOP JUMPDEST PUSH1 0x6D PUSH1 0x7B JUMP JUMPDEST STOP JUMPDEST PUSH1 0x75 PUSH1 0x7D JUMP JUMPDEST STOP JUMPDEST JUMP JUMPDEST JUMP JUMPDEST JUMP JUMPDEST JUMP INVALID LOG2 PUSH5 0x6970667358 0x22 SLT KECCAK256 0xA9 POP MUL 0x2E PUSH11 0xB8468AB540D264BC753EB0 0x2B 0x21 SWAP15 SWAP3 0xAC STATICCALL 0x29 JUMPDEST RETURNDATASIZE PUSH15 0xA5DEF376D15364736F6C6343000804 STOP CALLER "
        },
        "methodIdentifiers": {
          "borrow()": "e68d3569",
          "deposit()": "d0e30db0",
          "payOff()": "3fac68d5",
          "withdraw()": "3ccfd60b"
        }
      }
    }
  }
}