{
  "_format": "hh-sol-artifact-1",
  "contractName": "Point",
  "sourceName": "contracts/Point.sol",
  "abi": [
    {
      "inputs": [],
      "stateMutability": "payable",
      "type": "constructor"
    },
    {
      "anonymous": false,
      "inputs": [
        {
          "indexed": true,
          "internalType": "address",
          "name": "owner",
          "type": "address"
        },
        {
          "indexed": true,
          "internalType": "address",
          "name": "spender",
          "type": "address"
        },
        {
          "indexed": false,
          "internalType": "uint256",
          "name": "value",
          "type": "uint256"
        }
      ],
      "name": "Approval",
      "type": "event"
    },
    {
      "anonymous": false,
      "inputs": [
        {
          "indexed": true,
          "internalType": "address",
          "name": "from",
          "type": "address"
        },
        {
          "indexed": false,
          "internalType": "address",
          "name": "to",
          "type": "address"
        }
      ],
      "name": "OwnerChanged",
      "type": "event"
    },
    {
      "anonymous": false,
      "inputs": [
        {
          "indexed": true,
          "internalType": "address",
          "name": "from",
          "type": "address"
        },
        {
          "indexed": true,
          "internalType": "address",
          "name": "to",
          "type": "address"
        },
        {
          "indexed": false,
          "internalType": "uint256",
          "name": "value",
          "type": "uint256"
        }
      ],
      "name": "Transfer",
      "type": "event"
    },
    {
      "inputs": [
        {
          "internalType": "address",
          "name": "owner",
          "type": "address"
        },
        {
          "internalType": "address",
          "name": "spender",
          "type": "address"
        }
      ],
      "name": "allowance",
      "outputs": [
        {
          "internalType": "uint256",
          "name": "",
          "type": "uint256"
        }
      ],
      "stateMutability": "view",
      "type": "function"
    },
    {
      "inputs": [
        {
          "internalType": "address",
          "name": "spender",
          "type": "address"
        },
        {
          "internalType": "uint256",
          "name": "amount",
          "type": "uint256"
        }
      ],
      "name": "approve",
      "outputs": [
        {
          "internalType": "bool",
          "name": "",
          "type": "bool"
        }
      ],
      "stateMutability": "nonpayable",
      "type": "function"
    },
    {
      "inputs": [
        {
          "internalType": "address",
          "name": "account",
          "type": "address"
        }
      ],
      "name": "balanceOf",
      "outputs": [
        {
          "internalType": "uint256",
          "name": "",
          "type": "uint256"
        }
      ],
      "stateMutability": "view",
      "type": "function"
    },
    {
      "inputs": [],
      "name": "decimals",
      "outputs": [
        {
          "internalType": "uint8",
          "name": "",
          "type": "uint8"
        }
      ],
      "stateMutability": "view",
      "type": "function"
    },
    {
      "inputs": [
        {
          "internalType": "address",
          "name": "spender",
          "type": "address"
        },
        {
          "internalType": "uint256",
          "name": "subtractedValue",
          "type": "uint256"
        }
      ],
      "name": "decreaseAllowance",
      "outputs": [
        {
          "internalType": "bool",
          "name": "",
          "type": "bool"
        }
      ],
      "stateMutability": "nonpayable",
      "type": "function"
    },
    {
      "inputs": [
        {
          "internalType": "address",
          "name": "spender",
          "type": "address"
        },
        {
          "internalType": "uint256",
          "name": "addedValue",
          "type": "uint256"
        }
      ],
      "name": "increaseAllowance",
      "outputs": [
        {
          "internalType": "bool",
          "name": "",
          "type": "bool"
        }
      ],
      "stateMutability": "nonpayable",
      "type": "function"
    },
    {
      "inputs": [
        {
          "internalType": "address",
          "name": "account",
          "type": "address"
        },
        {
          "internalType": "uint256",
          "name": "amount",
          "type": "uint256"
        }
      ],
      "name": "mint",
      "outputs": [],
      "stateMutability": "nonpayable",
      "type": "function"
    },
    {
      "inputs": [],
      "name": "name",
      "outputs": [
        {
          "internalType": "string",
          "name": "",
          "type": "string"
        }
      ],
      "stateMutability": "view",
      "type": "function"
    },
    {
      "inputs": [],
      "name": "owner",
      "outputs": [
        {
          "internalType": "address",
          "name": "",
          "type": "address"
        }
      ],
      "stateMutability": "view",
      "type": "function"
    },
    {
      "inputs": [
        {
          "internalType": "address",
          "name": "inflection",
          "type": "address"
        }
      ],
      "name": "passOwnership",
      "outputs": [
        {
          "internalType": "bool",
          "name": "",
          "type": "bool"
        }
      ],
      "stateMutability": "nonpayable",
      "type": "function"
    },
    {
      "inputs": [],
      "name": "symbol",
      "outputs": [
        {
          "internalType": "string",
          "name": "",
          "type": "string"
        }
      ],
      "stateMutability": "view",
      "type": "function"
    },
    {
      "inputs": [],
      "name": "totalSupply",
      "outputs": [
        {
          "internalType": "uint256",
          "name": "",
          "type": "uint256"
        }
      ],
      "stateMutability": "view",
      "type": "function"
    },
    {
      "inputs": [
        {
          "internalType": "address",
          "name": "recipient",
          "type": "address"
        },
        {
          "internalType": "uint256",
          "name": "amount",
          "type": "uint256"
        }
      ],
      "name": "transfer",
      "outputs": [
        {
          "internalType": "bool",
          "name": "",
          "type": "bool"
        }
      ],
      "stateMutability": "nonpayable",
      "type": "function"
    },
    {
      "inputs": [
        {
          "internalType": "address",
          "name": "sender",
          "type": "address"
        },
        {
          "internalType": "address",
          "name": "recipient",
          "type": "address"
        },
        {
          "internalType": "uint256",
          "name": "amount",
          "type": "uint256"
        }
      ],
      "name": "transferFrom",
      "outputs": [
        {
          "internalType": "bool",
          "name": "",
          "type": "bool"
        }
      ],
      "stateMutability": "nonpayable",
      "type": "function"
    },
    {
      "inputs": [],
      "name": "whoIsOwner",
      "outputs": [
        {
          "internalType": "address",
          "name": "",
          "type": "address"
        }
      ],
      "stateMutability": "view",
      "type": "function"
    }
  ],
  "bytecode": "0x60806040526040518060400160405280600a81526020017f496e666c656374696f6e000000000000000000000000000000000000000000008152506040518060400160405280600581526020017f504f494e54000000000000000000000000000000000000000000000000000000815250816003908051906020019062000088929190620000eb565b508060049080519060200190620000a1929190620000eb565b50505033600560006101000a81548173ffffffffffffffffffffffffffffffffffffffff021916908373ffffffffffffffffffffffffffffffffffffffff16021790555062000200565b828054620000f9906200019b565b90600052602060002090601f0160209004810192826200011d576000855562000169565b82601f106200013857805160ff191683800117855562000169565b8280016001018555821562000169579182015b82811115620001685782518255916020019190600101906200014b565b5b5090506200017891906200017c565b5090565b5b80821115620001975760008160009055506001016200017d565b5090565b60006002820490506001821680620001b457607f821691505b60208210811415620001cb57620001ca620001d1565b5b50919050565b7f4e487b7100000000000000000000000000000000000000000000000000000000600052602260045260246000fd5b61197580620002106000396000f3fe608060405234801561001057600080fd5b50600436106100f55760003560e01c8063620996df116100975780639ee1bd0f116100665780639ee1bd0f1461029c578063a457c2d7146102ba578063a9059cbb146102ea578063dd62ed3e1461031a576100f5565b8063620996df1461020057806370a08231146102305780638da5cb5b1461026057806395d89b411461027e576100f5565b806323b872dd116100d357806323b872dd14610166578063313ce5671461019657806339509351146101b457806340c10f19146101e4576100f5565b806306fdde03146100fa578063095ea7b31461011857806318160ddd14610148575b600080fd5b61010261034a565b60405161010f9190611314565b60405180910390f35b610132600480360381019061012d91906110cf565b6103dc565b60405161013f91906112f9565b60405180910390f35b6101506103fa565b60405161015d9190611476565b60405180910390f35b610180600480360381019061017b9190611080565b610404565b60405161018d91906112f9565b60405180910390f35b61019e6104fc565b6040516101ab9190611491565b60405180910390f35b6101ce60048036038101906101c991906110cf565b610505565b6040516101db91906112f9565b60405180910390f35b6101fe60048036038101906101f991906110cf565b6105b1565b005b61021a6004803603810190610215919061101b565b61064f565b60405161022791906112f9565b60405180910390f35b61024a6004803603810190610245919061101b565b610779565b6040516102579190611476565b60405180910390f35b6102686107c1565b60405161027591906112de565b60405180910390f35b6102866107e7565b6040516102939190611314565b60405180910390f35b6102a4610879565b6040516102b191906112de565b60405180910390f35b6102d460048036038101906102cf91906110cf565b6108a3565b6040516102e191906112f9565b60405180910390f35b61030460048036038101906102ff91906110cf565b61098e565b60405161031191906112f9565b60405180910390f35b610334600480360381019061032f9190611044565b6109ac565b6040516103419190611476565b60405180910390f35b606060038054610359906115a6565b80601f0160208091040260200160405190810160405280929190818152602001828054610385906115a6565b80156103d25780601f106103a7576101008083540402835291602001916103d2565b820191906000526020600020905b8154815290600101906020018083116103b557829003601f168201915b5050505050905090565b60006103f06103e9610a33565b8484610a3b565b6001905092915050565b6000600254905090565b6000610411848484610c06565b6000600160008673ffffffffffffffffffffffffffffffffffffffff1673ffffffffffffffffffffffffffffffffffffffff168152602001908152602001600020600061045c610a33565b73ffffffffffffffffffffffffffffffffffffffff1673ffffffffffffffffffffffffffffffffffffffff168152602001908152602001600020549050828110156104dc576040517f08c379a00000000000000000000000000000000000000000000000000000000081526004016104d390611396565b60405180910390fd5b6104f0856104e8610a33565b858403610a3b565b60019150509392505050565b60006012905090565b60006105a7610512610a33565b848460016000610520610a33565b73ffffffffffffffffffffffffffffffffffffffff1673ffffffffffffffffffffffffffffffffffffffff16815260200190815260200160002060008873ffffffffffffffffffffffffffffffffffffffff1673ffffffffffffffffffffffffffffffffffffffff168152602001908152602001600020546105a291906114c8565b610a3b565b6001905092915050565b600560009054906101000a900473ffffffffffffffffffffffffffffffffffffffff1673ffffffffffffffffffffffffffffffffffffffff163373ffffffffffffffffffffffffffffffffffffffff1614610641576040517f08c379a000000000000000000000000000000000000000000000000000000000815260040161063890611416565b60405180910390fd5b61064b8282610e87565b5050565b6000600560009054906101000a900473ffffffffffffffffffffffffffffffffffffffff1673ffffffffffffffffffffffffffffffffffffffff163373ffffffffffffffffffffffffffffffffffffffff16146106e1576040517f08c379a00000000000000000000000000000000000000000000000000000000081526004016106d8906113b6565b60405180910390fd5b81600560006101000a81548173ffffffffffffffffffffffffffffffffffffffff021916908373ffffffffffffffffffffffffffffffffffffffff1602179055503373ffffffffffffffffffffffffffffffffffffffff167fb532073b38c83145e3e5135377a08bf9aab55bc0fd7c1179cd4fb995d2a5159c8360405161076891906112de565b60405180910390a260019050919050565b60008060008373ffffffffffffffffffffffffffffffffffffffff1673ffffffffffffffffffffffffffffffffffffffff168152602001908152602001600020549050919050565b600560009054906101000a900473ffffffffffffffffffffffffffffffffffffffff1681565b6060600480546107f6906115a6565b80601f0160208091040260200160405190810160405280929190818152602001828054610822906115a6565b801561086f5780601f106108445761010080835404028352916020019161086f565b820191906000526020600020905b81548152906001019060200180831161085257829003601f168201915b5050505050905090565b6000600560009054906101000a900473ffffffffffffffffffffffffffffffffffffffff16905090565b600080600160006108b2610a33565b73ffffffffffffffffffffffffffffffffffffffff1673ffffffffffffffffffffffffffffffffffffffff16815260200190815260200160002060008573ffffffffffffffffffffffffffffffffffffffff1673ffffffffffffffffffffffffffffffffffffffff1681526020019081526020016000205490508281101561096f576040517f08c379a000000000000000000000000000000000000000000000000000000000815260040161096690611436565b60405180910390fd5b61098361097a610a33565b85858403610a3b565b600191505092915050565b60006109a261099b610a33565b8484610c06565b6001905092915050565b6000600160008473ffffffffffffffffffffffffffffffffffffffff1673ffffffffffffffffffffffffffffffffffffffff16815260200190815260200160002060008373ffffffffffffffffffffffffffffffffffffffff1673ffffffffffffffffffffffffffffffffffffffff16815260200190815260200160002054905092915050565b600033905090565b600073ffffffffffffffffffffffffffffffffffffffff168373ffffffffffffffffffffffffffffffffffffffff161415610aab576040517f08c379a0000000000000000000000000000000000000000000000000000000008152600401610aa2906113f6565b60405180910390fd5b600073ffffffffffffffffffffffffffffffffffffffff168273ffffffffffffffffffffffffffffffffffffffff161415610b1b576040517f08c379a0000000000000000000000000000000000000000000000000000000008152600401610b1290611356565b60405180910390fd5b80600160008573ffffffffffffffffffffffffffffffffffffffff1673ffffffffffffffffffffffffffffffffffffffff16815260200190815260200160002060008473ffffffffffffffffffffffffffffffffffffffff1673ffffffffffffffffffffffffffffffffffffffff168152602001908152602001600020819055508173ffffffffffffffffffffffffffffffffffffffff168373ffffffffffffffffffffffffffffffffffffffff167f8c5be1e5ebec7d5bd14f71427d1e84f3dd0314c0f7b2291e5b200ac8c7c3b92583604051610bf99190611476565b60405180910390a3505050565b600073ffffffffffffffffffffffffffffffffffffffff168373ffffffffffffffffffffffffffffffffffffffff161415610c76576040517f08c379a0000000000000000000000000000000000000000000000000000000008152600401610c6d906113d6565b60405180910390fd5b600073ffffffffffffffffffffffffffffffffffffffff168273ffffffffffffffffffffffffffffffffffffffff161415610ce6576040517f08c379a0000000000000000000000000000000000000000000000000000000008152600401610cdd90611336565b60405180910390fd5b610cf1838383610fe7565b60008060008573ffffffffffffffffffffffffffffffffffffffff1673ffffffffffffffffffffffffffffffffffffffff16815260200190815260200160002054905081811015610d77576040517f08c379a0000000000000000000000000000000000000000000000000000000008152600401610d6e90611376565b60405180910390fd5b8181036000808673ffffffffffffffffffffffffffffffffffffffff1673ffffffffffffffffffffffffffffffffffffffff16815260200190815260200160002081905550816000808573ffffffffffffffffffffffffffffffffffffffff1673ffffffffffffffffffffffffffffffffffffffff1681526020019081526020016000206000828254610e0a91906114c8565b925050819055508273ffffffffffffffffffffffffffffffffffffffff168473ffffffffffffffffffffffffffffffffffffffff167fddf252ad1be2c89b69c2b068fc378daa952ba7f163c4a11628f55a4df523b3ef84604051610e6e9190611476565b60405180910390a3610e81848484610fec565b50505050565b600073ffffffffffffffffffffffffffffffffffffffff168273ffffffffffffffffffffffffffffffffffffffff161415610ef7576040517f08c379a0000000000000000000000000000000000000000000000000000000008152600401610eee90611456565b60405180910390fd5b610f0360008383610fe7565b8060026000828254610f1591906114c8565b92505081905550806000808473ffffffffffffffffffffffffffffffffffffffff1673ffffffffffffffffffffffffffffffffffffffff1681526020019081526020016000206000828254610f6a91906114c8565b925050819055508173ffffffffffffffffffffffffffffffffffffffff16600073ffffffffffffffffffffffffffffffffffffffff167fddf252ad1be2c89b69c2b068fc378daa952ba7f163c4a11628f55a4df523b3ef83604051610fcf9190611476565b60405180910390a3610fe360008383610fec565b5050565b505050565b505050565b60008135905061100081611911565b92915050565b60008135905061101581611928565b92915050565b60006020828403121561102d57600080fd5b600061103b84828501610ff1565b91505092915050565b6000806040838503121561105757600080fd5b600061106585828601610ff1565b925050602061107685828601610ff1565b9150509250929050565b60008060006060848603121561109557600080fd5b60006110a386828701610ff1565b93505060206110b486828701610ff1565b92505060406110c586828701611006565b9150509250925092565b600080604083850312156110e257600080fd5b60006110f085828601610ff1565b925050602061110185828601611006565b9150509250929050565b6111148161151e565b82525050565b61112381611530565b82525050565b6000611134826114ac565b61113e81856114b7565b935061114e818560208601611573565b61115781611636565b840191505092915050565b600061116f6023836114b7565b915061117a82611647565b604082019050919050565b60006111926022836114b7565b915061119d82611696565b604082019050919050565b60006111b56026836114b7565b91506111c0826116e5565b604082019050919050565b60006111d86028836114b7565b91506111e382611734565b604082019050919050565b60006111fb602a836114b7565b915061120682611783565b604082019050919050565b600061121e6025836114b7565b9150611229826117d2565b604082019050919050565b60006112416024836114b7565b915061124c82611821565b604082019050919050565b6000611264601a836114b7565b915061126f82611870565b602082019050919050565b60006112876025836114b7565b915061129282611899565b604082019050919050565b60006112aa601f836114b7565b91506112b5826118e8565b602082019050919050565b6112c98161155c565b82525050565b6112d881611566565b82525050565b60006020820190506112f3600083018461110b565b92915050565b600060208201905061130e600083018461111a565b92915050565b6000602082019050818103600083015261132e8184611129565b905092915050565b6000602082019050818103600083015261134f81611162565b9050919050565b6000602082019050818103600083015261136f81611185565b9050919050565b6000602082019050818103600083015261138f816111a8565b9050919050565b600060208201905081810360008301526113af816111cb565b9050919050565b600060208201905081810360008301526113cf816111ee565b9050919050565b600060208201905081810360008301526113ef81611211565b9050919050565b6000602082019050818103600083015261140f81611234565b9050919050565b6000602082019050818103600083015261142f81611257565b9050919050565b6000602082019050818103600083015261144f8161127a565b9050919050565b6000602082019050818103600083015261146f8161129d565b9050919050565b600060208201905061148b60008301846112c0565b92915050565b60006020820190506114a660008301846112cf565b92915050565b600081519050919050565b600082825260208201905092915050565b60006114d38261155c565b91506114de8361155c565b9250827fffffffffffffffffffffffffffffffffffffffffffffffffffffffffffffffff03821115611513576115126115d8565b5b828201905092915050565b60006115298261153c565b9050919050565b60008115159050919050565b600073ffffffffffffffffffffffffffffffffffffffff82169050919050565b6000819050919050565b600060ff82169050919050565b60005b83811015611591578082015181840152602081019050611576565b838111156115a0576000848401525b50505050565b600060028204905060018216806115be57607f821691505b602082108114156115d2576115d1611607565b5b50919050565b7f4e487b7100000000000000000000000000000000000000000000000000000000600052601160045260246000fd5b7f4e487b7100000000000000000000000000000000000000000000000000000000600052602260045260246000fd5b6000601f19601f8301169050919050565b7f45524332303a207472616e7366657220746f20746865207a65726f206164647260008201527f6573730000000000000000000000000000000000000000000000000000000000602082015250565b7f45524332303a20617070726f766520746f20746865207a65726f20616464726560008201527f7373000000000000000000000000000000000000000000000000000000000000602082015250565b7f45524332303a207472616e7366657220616d6f756e742065786365656473206260008201527f616c616e63650000000000000000000000000000000000000000000000000000602082015250565b7f45524332303a207472616e7366657220616d6f756e742065786365656473206160008201527f6c6c6f77616e6365000000000000000000000000000000000000000000000000602082015250565b7f4572726f722c206f6e6c79206f776e65722063616e207472616e73666572206d60008201527f696e74657220726f6c6500000000000000000000000000000000000000000000602082015250565b7f45524332303a207472616e736665722066726f6d20746865207a65726f20616460008201527f6472657373000000000000000000000000000000000000000000000000000000602082015250565b7f45524332303a20617070726f76652066726f6d20746865207a65726f2061646460008201527f7265737300000000000000000000000000000000000000000000000000000000602082015250565b7f4572726f722c2073656e646572206973206e6f74206f776e6572000000000000600082015250565b7f45524332303a2064656372656173656420616c6c6f77616e63652062656c6f7760008201527f207a65726f000000000000000000000000000000000000000000000000000000602082015250565b7f45524332303a206d696e7420746f20746865207a65726f206164647265737300600082015250565b61191a8161151e565b811461192557600080fd5b50565b6119318161155c565b811461193c57600080fd5b5056fea26469706673582212205d1d7ff6d2a3a98dca08d8e347f71a6fd7cedd9106ca73ec70917b9693b1744364736f6c63430008040033",
  "linkReferences": {},
  "deployedLinkReferences": {}
}